:04000000AFEF00F06E
:10001800D8CF0FF0E8CF10F0E0CF11F0FACF12F000
:10002800FBCF13F0E9CF14F0EACF15F0E1CF16F0CB
:10003800E2CF17F0D9CF18F0DACF19F0F3CF1AF0D2
:10004800F4CF1BF0F6CF1CF0F7CF1DF0F8CF1EF061
:10005800F5CF1FF0A4B002D0A4A25AD003EC0BF045
:100068000009D8B452D0310E016E000E026E71EC48
:1000780005F0020E3118321033103410D8A407D00E
:100088003F04D8A402D0839C02D0838C00D0030EF6
:100098003118321033103410D8A407D03F04D8A434
:1000A80002D0839A02D0838A00D0040E311832100D
:1000B80033103410D8A407D03F04D8A402D08398B2
:1000C80002D0838800D00D0E31183210331034104E
:1000D800D8A406D0040E3518D8A402D0838600D040
:1000E800110E3118321033103410D8A40ED035C088
:1000F8000DF0060E0E6ED8900D320E2EFCD70DA008
:1001080002D0838002D0839000D0A490A49200D023
:100118001FC0F5FF1EC0F8FF1DC0F7FF1CC0F6FF8B
:100128001BC0F4FF1AC0F3FF19C0DAFF18C0D9FFCB
:1001380017C0E2FF16C0E1FF15C0EAFF14C0E9FFCF
:1001480013C0FBFF12C0FAFF11C0E0FF10C0E8FFA8
:100158000FC0D8FF1000EFEF0AF0296E2950D8A47D
:100168004CD02428D8A449D00F01019720C025F0ED
:1001780021C026F022C027F023C028F0040E05D0A5
:10018800D8902832273226322532E82EF9D725C0D2
:100198002AF026C02BF027C02CF028C02DF02A50BA
:1001A8002A6E2B6A2C6A2D6A2AC000FF070E2014BB
:1001B8002A6E000E21142B6E000E22142C6E000ED7
:1001C80023142D6E2AC025F02BC026F02CC027F052
:1001D8002DC028F0050ED890253626362736283625
:1001E800E82EF9D725C02AF026C02BF027C02CF01E
:1001F80028C02DF02AC001FF00D02904D8A44CD073
:100208002428D8A449D00F01059720C025F021C083
:1002180026F022C027F023C028F0040E05D0D8907D
:100228002832273226322532E82EF9D725C02AF07F
:1002380026C02BF027C02CF028C02DF02A502A6E9B
:100248002B6A2C6A2D6A2AC004FF070E20142A6E16
:10025800000E21142B6E000E22142C6E000E231497
:100268002D6E2AC025F02BC026F02CC027F02DC0FB
:1002780028F0050ED8902536263627362836E82E5B
:10028800F9D725C02AF026C02BF027C02CF028C0AB
:100298002DF02AC005FF00D0020E2918D8A44CD092
:1002A8002428D8A449D00F01099720C025F021C0DF
:1002B80026F022C027F023C028F0040E05D0D890DD
:1002C8002832273226322532E82EF9D725C02AF0DF
:1002D80026C02BF027C02CF028C02DF02A502A6EFB
:1002E8002B6A2C6A2D6A2AC008FF070E20142A6E72
:1002F800000E21142B6E000E22142C6E000E2314F7
:100308002D6E2AC025F02BC026F02CC027F02DC05A
:1003180028F0050ED8902536263627362836E82EBA
:10032800F9D725C02AF026C02BF027C02CF028C00A
:100338002DF02AC009FF00D0030E2918D8A44CD0EC
:100348002428D8A449D00F010D9720C025F021C03A
:1003580026F022C027F023C028F0040E05D0D8903C
:100368002832273226322532E82EF9D725C02AF03E
:1003780026C02BF027C02CF028C02DF02A502A6E5A
:100388002B6A2C6A2D6A2AC00CFF070E20142A6ECD
:10039800000E21142B6E000E22142C6E000E231456
:1003A8002D6E2AC025F02BC026F02CC027F02DC0BA
:1003B80028F0050ED8902536263627362836E82E1A
:1003C800F9D725C02AF026C02BF027C02CF028C06A
:1003D8002DF02AC00DFF00D0040E2918D8A44CD047
:1003E8002428D8A449D00F01119720C025F021C096
:1003F80026F022C027F023C028F0040E05D0D8909C
:100408002832273226322532E82EF9D725C02AF09D
:1004180026C02BF027C02CF028C02DF02A502A6EB9
:100428002B6A2C6A2D6A2AC010FF070E20142A6E28
:10043800000E21142B6E000E22142C6E000E2314B5
:100448002D6E2AC025F02BC026F02CC027F02DC019
:1004580028F0050ED8902536263627362836E82E79
:10046800F9D725C02AF026C02BF027C02CF028C0C9
:100478002DF02AC011FF00D0050E2918D8A44CD0A1
:100488002428D8A449D00F01159720C025F021C0F1
:1004980026F022C027F023C028F0040E05D0D890FB
:1004A8002832273226322532E82EF9D725C02AF0FD
:1004B80026C02BF027C02CF028C02DF02A502A6E19
:1004C8002B6A2C6A2D6A2AC014FF070E20142A6E84
:1004D800000E21142B6E000E22142C6E000E231415
:1004E8002D6E2AC025F02BC026F02CC027F02DC079
:1004F80028F0050ED8902536263627362836E82ED9
:10050800F9D725C02AF026C02BF027C02CF028C028
:100518002DF02AC015FF00D02950D8A477D0F70EA7
:100528002418D8A473D00F01018720502A6E2B6A93
:100538002C6A2D6A2AC003FF000E20142A6EFF0EB3
:1005480021142B6E000E22142C6E000E23142D6E17
:100558002AC025F02BC026F02CC027F02DC028F08B
:1005680026C025F027C026F028C027F0286A25C015
:100578002AF026C02BF027C02CF028C02DF02AC066
:1005880002FF22A003D00F01018102D00F010191C7
:1005980022A203D00F01018302D00F01019322A4EC
:1005A80003D00F01018B02D00F01019B22A603D0BB
:1005B8000F01018D02D00F01019D22A803D00F0168
:1005C800018F03D00F01019F00D020C025F021C06A
:1005D80026F022C027F023C028F0160E05D0D890A8
:1005E8002832273226322532E82EF9D725C02AF0BC
:1005F80026C02BF027C02CF028C02DF02A502A6ED8
:100608002B6A2C6A2D6A2AC000FF00D02904D8A4BE
:1006180077D0F70E2418D8A473D00F01058720507F
:100628002A6E2B6A2C6A2D6A2AC007FF000E201436
:100638002A6EFF0E21142B6E000E22142C6E000E53
:1006480023142D6E2AC025F02BC026F02CC027F0CD
:100658002DC028F026C025F027C026F028C027F096
:10066800286A25C02AF026C02BF027C02CF028C005
:100678002DF02AC006FF22A003D00F01058102D069
:100688000F01059122A203D00F01058302D00F01AB
:10069800059322A403D00F01058B02D00F01059BFF
:1006A80022A603D00F01058D02D00F01059D22A8B7
:1006B80003D00F01058F03D00F01059F00D020C084
:1006C80025F021C026F022C027F023C028F0160EFE
:1006D80005D0D8902832273226322532E82EF9D78D
:1006E80025C02AF026C02BF027C02CF028C02DF0FA
:1006F8002A502A6E2B6A2C6A2D6A2AC004FF00D061
:10070800020E2918D8A477D0F70E2418D8A473D0CD
:100718000F01098720502A6E2B6A2C6A2D6A2AC07D
:100728000BFF000E20142A6EFF0E21142B6E000EF4
:1007380022142C6E000E23142D6E2AC025F02BC017
:1007480026F02CC027F02DC028F026C025F027C0A1
:1007580026F028C027F0286A25C02AF026C02BF0EA
:1007680027C02CF028C02DF02AC00AFF22A003D0F1
:100778000F01098102D00F01099122A203D00F01B4
:10078800098302D00F01099322A403D00F01098B1A
:1007980002D00F01099B22A603D00F01098D02D0B8
:1007A8000F01099D22A803D00F01098F03D00F0163
:1007B800099F00D020C025F021C026F022C027F0D4
:1007C80023C028F0160E05D0D890283227322632BA
:1007D8002532E82EF9D725C02AF026C02BF027C0ED
:1007E8002CF028C02DF02A502A6E2B6A2C6A2D6A0C
:1007F8002AC008FF00D0030E2918D8A477D0F70E16
:100808002418D8A473D00F010D8720502A6E2B6AA4
:100818002C6A2D6A2AC00FFF000E20142A6EFF0EC4
:1008280021142B6E000E22142C6E000E23142D6E34
:100838002AC025F02BC026F02CC027F02DC028F0A8
:1008480026C025F027C026F028C027F0286A25C032
:100858002AF026C02BF027C02CF028C02DF02AC083
:100868000EFF22A003D00F010D8102D00F010D91C0
:1008780022A203D00F010D8302D00F010D9322A4F1
:1008880003D00F010D8B02D00F010D9B22A603D0C0
:100898000F010D8D02D00F010D9D22A803D00F016D
:1008A8000D8F03D00F010D9F00D020C025F021C06F
:1008B80026F022C027F023C028F0160E05D0D890C5
:1008C8002832273226322532E82EF9D725C02AF0D9
:1008D80026C02BF027C02CF028C02DF02A502A6EF5
:1008E8002B6A2C6A2D6A2AC00CFF00D0040E291826
:1008F800D8A477D0F70E2418D8A473D00F01118785
:1009080020502A6E2B6A2C6A2D6A2AC013FF000E0B
:1009180020142A6EFF0E21142B6E000E22142C6E4A
:10092800000E23142D6E2AC025F02BC026F02CC0F3
:1009380027F02DC028F026C025F027C026F028C0B3
:1009480027F0286A25C02AF026C02BF027C02CF0F3
:1009580028C02DF02AC012FF22A003D00F01118158
:1009680002D00F01119122A203D00F01118302D0EE
:100978000F01119322A403D00F01118B02D00F0194
:10098800119B22A603D00F01118D02D00F01119DDA
:1009980022A803D00F01118F03D00F01119F00D09F
:1009A80020C025F021C026F022C027F023C028F05F
:1009B800160E05D0D8902832273226322532E82E56
:1009C800F9D725C02AF026C02BF027C02CF028C064
:1009D8002DF02A502A6E2B6A2C6A2D6A2AC010FF25
:1009E80000D0050E2918D8A477D0F70E2418D8A45B
:1009F80073D00F01158720502A6E2B6A2C6A2D6A36
:100A08002AC017FF000E20142A6EFF0E21142B6E29
:100A1800000E22142C6E000E23142D6E2AC025F011
:100A28002BC026F02CC027F02DC028F026C025F0BA
:100A380027C026F028C027F0286A25C02AF026C03B
:100A48002BF027C02CF028C02DF02AC016FF22A0BA
:100A580003D00F01158102D00F01159122A203D0F6
:100A68000F01158302D00F01159322A403D00F01A3
:100A7800158B02D00F01159B22A603D00F01158DEF
:100A880002D00F01159D22A803D00F01158F03D0A6
:100A98000F01159F00D020C025F021C026F022C0EC
:100AA80027F023C028F0160E05D0D8902832273218
:100AB80026322532E82EF9D725C02AF026C02BF099
:100AC80027C02CF028C02DF02A502A6E2B6A2C6AD9
:100AD8002D6A2AC014FF00D01200000E0B6E74AEEF
:100AE80002D00B8000D074AC02D00B8200D00F0172
:100AF80050AF49D101C0D9FF02C0DAFFDE6ADE6A11
:100B0800DE6ADD6A20EE04F00150D9260250DA22AE
:100B180056CFDFFF20EE05F00150D9260250DA2229
:100B280057CFDFFF20EE06F00150D9260250DA2217
:100B380058CFDFFF20EE07F00150D9260250DA2205
:100B480059CFDFFF20EE08F00150D9260250DA22F3
:100B58005ACFDFFF20EE09F00150D9260250DA22E1
:100B68005BCFDFFF20EE0AF00150D9260250DA22CF
:100B78005CCFDFFF20EE0BF00150D9260250DA22BD
:100B88005DCFDFFF20EE0EF00150D9260250DA22A9
:100B98000F0155AD02D0010E01D0000EDF6E20EE20
:100BA8000DF00150D9260250DA220F0155510F0BD2
:100BB800DF6E20EE0CF00150D9260250DA220F0128
:100BC80052A702D0010E01D0000EDF6E0F0152B7FE
:100BD80044D051CF03F0046A056A066A030ED89020
:100BE8000336043605360636E82EF9D701C0D9FF94
:100BF80002C0DAFF03C0DEFF04C0DEFF05C0DEFF6F
:100C080006C0DEFF0F015239E842070B070B0C6ED6
:100C180001C0D9FF02C0DAFFDECF03F0DECF04F057
:100C2800DECF05F0DECF06F00C500324076E000E71
:100C38000420086E000E0520096E000E06200A6EBC
:100C480001C0D9FF02C0DAFF07C0DEFF08C0DEFF1F
:100C580009C0DEFF0AC0DEFF93D054CF03F0046A58
:100C6800056A066A01C0D9FF02C0DAFF03C0DEFFC9
:100C780004C0DEFF05C0DEFF06C0DEFF53CF03F071
:100C8800046A056A066A05C006F004C005F003C0D8
:100C980004F0036A01C0D9FF02C0DAFF0350DE2660
:100CA8000450DE220550DE220650DE220F0152A13A
:100CB8000DD001C0D9FF02C0DAFF000EDE12000E0F
:100CC800DE12010EDE12000EDE1200D00F0152A35A
:100CD8000DD001C0D9FF02C0DAFF000EDE12000EEF
:100CE800DE12020EDE12000EDE1200D00F0152AB31
:100CF8000DD001C0D9FF02C0DAFF000EDE12000ECF
:100D0800DE12040EDE12000EDE1200D00F0152AD0C
:100D18000DD001C0D9FF02C0DAFF000EDE12000EAE
:100D2800DE12080EDE12000EDE1200D00F0152AFE6
:100D38000DD001C0D9FF02C0DAFF000EDE12000E8E
:100D4800DE12100EDE12000EDE1200D051CF03F0BC
:100D5800046A056A066A150ED89003360436053605
:100D68000636E82EF9D701C0D9FF02C0DAFF0350D2
:100D7800DE120450DE120550DE120650DE1200D0DC
:100D88000F01509F40D160AE3ED101C0D9FF02C0D3
:100D9800DAFFDE6ADE6ADE6ADD6A20EE04F0015000
:100DA800D9260250DA2266CFDFFF20EE05F0015087
:100DB800D9260250DA2267CFDFFF20EE06F0015075
:100DC800D9260250DA2268CFDFFF20EE07F0015063
:100DD800D9260250DA2269CFDFFF20EE08F0015051
:100DE800D9260250DA226ACFDFFF20EE09F001503F
:100DF800D9260250DA226BCFDFFF20EE0AF001502D
:100E0800D9260250DA226CCFDFFF20EE0BF001501A
:100E1800D9260250DA226DCFDFFF20EE0EF0015006
:100E2800D9260250DA2265AC02D0010E01D0000E9C
:100E3800DF6E20EE0DF00150D9260250DA226550FF
:100E48000F0BDF6E20EE0CF00150D9260250DA228B
:100E580062A602D0010E01D0000EDF6E62B643D04A
:100E680061CF03F0046A056A066A030ED890033658
:100E7800043605360636E82EF9D701C0D9FF02C078
:100E8800DAFF03C0DEFF04C0DEFF05C0DEFF06C0D8
:100E9800DEFF6238E842070B070B0C6E01C0D9FF72
:100EA80002C0DAFFDECF03F0DECF04F0DECF05F0BC
:100EB800DECF06F00C500324076E000E0420086EE7
:100EC800000E0520096E000E06200A6E01C0D9FF2B
:100ED80002C0DAFF07C0DEFF08C0DEFF09C0DEFF80
:100EE8000AC0DEFF8ED064CF03F0046A056A066A82
:100EF80001C0D9FF02C0DAFF03C0DEFF04C0DEFF75
:100F080005C0DEFF06C0DEFF63CF03F0046A056A92
:100F1800066A05C006F004C005F003C004F0036AC1
:100F280001C0D9FF02C0DAFF0350DE260450DE22DA
:100F38000550DE220650DE2262A00DD001C0D9FF86
:100F480002C0DAFF000EDE12000EDE12010EDE1203
:100F5800000EDE1200D062A20DD001C0D9FF02C07F
:100F6800DAFF000EDE12000EDE12020EDE12000E96
:100F7800DE1200D062AA0DD001C0D9FF02C0DAFF8C
:100F8800000EDE12000EDE12040EDE12000EDE125D
:100F980000D062AC0DD001C0D9FF02C0DAFF000E4C
:100FA800DE12000EDE12080EDE12000EDE1200D077
:100FB80062AE0DD001C0D9FF02C0DAFF000EDE120A
:100FC800000EDE12100EDE12000EDE1200D061CF0F
:100FD80003F0046A056A066A150ED89003360436CB
:100FE80005360636E82EF9D701C0D9FF02C0DAFF68
:100FF8000350DE120450DE120550DE120650DE12D7
:1010080000D0609E00D01200296E2904D8A44AD0CE
:101018002428D8A447D020C025F021C026F022C01B
:1010280027F023C028F0040E05D0D89028322732A4
:1010380026322532E82EF9D725C02AF026C02BF013
:1010480027C02CF028C02DF02A502A6E2B6A2C6A53
:101058002D6A2AC018FF070E20142A6E000E2114CC
:101068002B6E000E22142C6E000E23142D6E2AC037
:1010780025F02BC026F02CC027F02DC028F0050E37
:10108800D8902536263627362836E82EF9D725C0B3
:101098002AF026C02BF027C02CF028C02DF02AC03B
:1010A80019FF00D0020E2918D8A44AD02428D8A4A1
:1010B80047D020C025F021C026F022C027F023C049
:1010C80028F0040E05D0D89028322732263225324F
:1010D800E82EF9D725C02AF026C02BF027C02CF01F
:1010E80028C02DF02A502A6E2B6A2C6A2D6A2AC035
:1010F8001CFF070E20142A6E000E21142B6E000E02
:1011080022142C6E000E23142D6E2AC025F02BC03D
:1011180026F02CC027F02DC028F0050ED8902536D3
:10112800263627362836E82EF9D725C02AF026C0D5
:101138002BF027C02CF028C02DF02AC01DFF00D0AE
:101148002904D8A475D0F70E2418D8A471D020503B
:101158002A6E2B6A2C6A2D6A2AC01BFF000E2014E7
:101168002A6EFF0E21142B6E000E22142C6E000E18
:1011780023142D6E2AC025F02BC026F02CC027F092
:101188002DC028F026C025F027C026F028C027F05B
:10119800286A25C02AF026C02BF027C02CF028C0CA
:1011A8002DF02AC01AFF22A003D00F01198102D006
:1011B8000F01199122A203D00F01198302D00F0148
:1011C800199322A403D00F01198B02D00F01199B88
:1011D80022A603D00F01198D02D00F01199D22A854
:1011E80003D00F01198F03D00F01199F00D020C021
:1011F80025F021C026F022C027F023C028F0160EC3
:1012080005D0D8902832273226322532E82EF9D751
:1012180025C02AF026C02BF027C02CF028C02DF0BE
:101228002A502A6E2B6A2C6A2D6A2AC018FF00D011
:10123800020E2918D8A475D0F70E2418D8A471D096
:1012480020502A6E2B6A2C6A2D6A2AC01FFF000EB6
:1012580020142A6EFF0E21142B6E000E22142C6E01
:10126800000E23142D6E2AC025F02BC026F02CC0AA
:1012780027F02DC028F026C025F027C026F028C06A
:1012880027F0286A25C02AF026C02BF027C02CF0AA
:1012980028C02DF02AC01EFF22A003D00F011D81F7
:1012A80002D00F011D9122A203D00F011D8302D08D
:1012B8000F011D9322A403D00F011D8B02D00F0133
:1012C8001D9B22A603D00F011D8D02D00F011D9D6D
:1012D80022A803D00F011D8F03D00F011D9F00D03E
:1012E80020C025F021C026F022C027F023C028F016
:1012F800160E05D0D8902832273226322532E82E0D
:10130800F9D725C02AF026C02BF027C02CF028C01A
:101318002DF02A502A6E2B6A2C6A2D6A2AC01CFFCF
:1013280000D012000001696F800E0FEC0BF0000E68
:10133800706E000E716E000E726E00016241E8421E
:10134800C00B0001626F000162517012000163510D
:10135800701200016951711200016039E842F80BFE
:101368000001606F000160517112000164A5718C69
:10137800000164A102D0718E00D000016151721287
:10138800000164A302D0728C00D000016451600B8C
:10139800606E00016451100BFF0AD8B4608460CFFE
:1013A80050FF000E206E000E216E000E226E000E01
:1013B800236EF70E246E010E08EC08F0000E206E66
:1013C800000E216E000E226E000E236EF70E246EA4
:1013D800020E08EC08F00FD0F70E00016A6F07D074
:1013E80000016A6900016B6928D000016A69F70E7B
:1013F80000016B6F22D09F0E0001656FFF0E000188
:10140800666F00016451600B0001676F686B000133
:10141800655100016713000166510001681300015E
:101428006851000AD8A4E1D700016751BF0AD8B4AF
:10143800D7D7600AD8B4D0D7D8D7000E206E000E00
:10144800216E000E226E000E236E6AC024F0000E7C
:10145800B1EC00F0000E206E000E216E000E226E20
:10146800000E236E6AC024F0010EB1EC00F0000EED
:10147800206E000E216E000E226E000E236E6BC0D1
:1014880024F0020EB1EC00F0000E206E000E216E6A
:10149800000E226E000E236E6BC024F0030EB1EC1A
:1014A80000F0000E206E000E216E000E226E000E5F
:1014B800236E6BC024F0040EB1EC00F0000E206E19
:1014C800000E216E000E226E000E236E6BC024F0FB
:1014D800050EB1EC00F0000E0FEC0BF01200C0ECA2
:1014E8000AF000D08072340E2E6EF20EE82EFED76F
:1014F8002E2EFCD7340E2E6EF20EE82EFED72E2E90
:10150800FCD7340E2E6EF20EE82EFED72E2EFCD708
:10151800340E2E6EF20EE82EFED72E2EFCD7340E89
:101528002E6EF20EE82EFED72E2EFCD7340E2E6E1F
:10153800F20EE82EFED72E2EFCD7340E2E6EF20EAB
:10154800E82EFED72E2EFCD7340E2E6EF20EE82E85
:10155800FED72E2EFCD7340E2E6EF20EE82EFED7B6
:101568002E2EFCD7340E2E6EF20EE82EFED72E2E1F
:10157800FCD7B8D7AFEF00F0000E896EFD0E926E63
:10158800000E8A6EFB0E936E000E8B6E9468000E32
:101598008C6E000E956E000E8D6E000E966E060E09
:1015A8000001606F050E0001616F010E0001626F9E
:1015B800030E0001636F9D0E0001646F040E96EC2C
:1015C80009F0A492A490D08EA592A590A382A3809E
:1015D800F28EF28C120000EE2FF0110EEE6AE80681
:1015E800FDE1320EF66E160EF76E000EF86E09006B
:1015F800F5CF40F0000EF86E000173EF0AF0010E0F
:10160800016E60BE05D00F0150BF02D0000E016E02
:10161800015000D01200206E20C06FFF00D06E5025
:0C162800E00B2018D8A4FBD71200100023
:020000040020DA
:08000000FFFFFFFFFFFFFFFF00
:020000040030CA
:0E000000FF021F1EFF8081FF0FC00FE00F40A8
:00000001FF
